S00D000074656D20372E737265637A
S11300000C942A000C9434000C9434000C943400A6
S11300100C9434000C9434000C9434000C9434008C
S11300200C9434000C9434000C9434000C9434007C
S11300300C9434000C9434000C9434000C9434006C
S11300400C9434000C9434000C9434000C9434005C
S11300500C94340011241FBECFE5D4E0DEBFCDBF25
S11300600E9436000C9476000C940000CF93DF932A
S11300701F92CDB7DEB7D19887B3836087BB379A19
S113008086B1836086B93D9A389A369A3699FECFFE
S113009085B1898306C0C09A369A3699FECF85B158
S11300A0898389818333B8F718BA8981833378F4D3
S11300B089818E3260F018BA369A3699FECF85B1AE
S11300C089838981833318F489818E32A0F718BA21
S11300D089818E3248F4C19A369A3699FECF85B119
S11300E0898389818E32B8F318BADBCFF894FFCFB5
S9030000FC
